:08000000803102288731E92F4D
:1004B20021001313080071082000E0007008DF001B
:1004C200080071082000E4007008E30008007108C9
:1004D2002000E2007008E1000800640080010131A0
:1004E200890B6F2A0034FE0012001E00FE0B752AD3
:1004F20000342F0096019701980199019A019B01FE
:100502000800633031008D008F01910106309300A5
:1005120092010800C034F934A434B03499349234CE
:100522008334F83480349834803027008E004D3084
:100532008D00C0308C0024001F08F33904389F005E
:1005420008000130250090008F0191019B308D0041
:100552008C012E009010F03025008E000800F20071
:10056200720821009E009317131313140000210038
:100572001318BC2ABD2AB82A0D08F1000C08F00095
:1005820008007108F3007008F200F336F20CF3363B
:10059200F20C720827008D0070080339F200053052
:1005A200F235FF3E031DD12A72358C0008008231DC
:1005B2007A2282318331472382318231822282310F
:1005C2008231952282318231EE2282318231A2221F
:1005D2008231833125238231080022008E018F016E
:1005E20090019101920193018D0121009E019B01D5
:1005F2009C0194019501960197019A01990103309A
:100602009800843093009D010800F401F501701CEC
:100612000B2B0C2B102B7208F4077308F53D0130DD
:10062200F235F30D890B112B0130F136F00C890BE9
:10063200162B70087104031D1F2B202B082B750825
:10064200F1007408F0000800083022009F0090308A
:100652009D0024309E0067309B009C010030F0001A
:100662000030F1008231622283310030F00000302C
:10067200F1008231682283310030F0000030F10055
:1006820082315C2283312000C801080020009A01D7
:1006920099019601970198010730950071309100F8
:1006A200F0309200BF30930094013E00D9017F30B8
:1006B200CE00F030C3000730E400F130B800DA01B8
:1006C200E501C401B901CF01E601BA01C501D001BA
:1006D200DB01FF30BB00FF30C600FF30D100FF302E
:1006E200DC000730E700FF30BC00FF30C700FF30FE
:1006F200D200FF30DD000730E8000E3097001730DF
:100702003D00CB0010303E00A60008002000CA01C8
:10071200F71F8C2B8D2B942BF609F709F60A031978
:10072200F70ACA01CA0AF91F972B982BA12BF809BD
:10073200F909F80A0319F90A0130FA007A08CA0617
:10074200CB01CC01760877040319A82BA92BD82B4F
:10075200C901C90AB52B0130F635F70D890BAD2B4E
:100762000130FA007A08C907F71FB82BB92BAC2B56
:100772000130CB35CC0D890BBA2B77087902031DDA
:10078200C42B76087802031CC72BC82BCD2B760806
:10079200F8027708F93B4B140130F736F60C890B57
:1007A200CE2B0130C902031DD72BD82BB92B4A08F7
:1007B2000319DC2BDD2BE22BCB09CC09CB0A031965
:1007C200CC0A4C08F7004B08F60008000030700510
:1007D200F80000307105F90080307205FA007F30B0
:1007E2007305FB007B087A0479047804031DFA2B55
:1007F200FB2B032C0030F3000030F2000030F1003C
:100802000030F00000307405F80000307505F90082
:1008120080307605FA007F307705FB007B087A048A
:1008220079047804031D162C172C1F2C0030F700B6
:100832000030F6000030F5000030F400F31F222CE7
:10084200232C3B2C0030F8000030F9000030FA0075
:100852008030FB007008F8027108F93B7208FA3B1D
:100862007308FB3B7B08F3007A08F2007908F10079
:100872007808F000F71F3E2C3F2C572C0030F80070
:100882000030F9000030FA008030FB007408F802F2
:100892007508F93B7608FA3B7708FB3B7B08F700C3
:1008A2007A08F6007908F5007808F4008030F3063B
:1008B2008030F70677087302031D692C76087202EE
:1008C200031D692C75087102031D692C74087002DE
:1008D20003186C2C6D2C6F2C0310702C0314080061
:1008E200F80078080319762C772C8B2CF31F7A2CBE
:1008F2007B2C8B2C7009FA007109FB007209FC0039
:100902007309FD00FA0A0319FB0A0319FC0A031909
:10091200FD0A932C7308FD007208FC007108FB00AD
:100922007008FA007308720471047004031D9A2C93
:100932009B2CA42C0030F3000030F2000030F100B8
:100942000030F0001A2D9630F900B22C0130F4007C
:100952007408F9070130FD36FC0CFB0CFA0C890B0C
:10096200AC2CFE307D05031DB72CB82CA72CCC2C4B
:100972000130F4007408F9070130FA070030FB3D3A
:100982000030FC3D0030FD3D0130FD36FC0CFB0C1F
:10099200FA0C890BC62CFF307D05031DD12CD22CFD
:1009A200B92CDC2C0130F9020130FA35FB0DFC0DBB
:1009B200FD0D890BD62CFC1BDF2CE02CE62C023023
:1009C20079020318E52CE62CD32C7918E92CEA2CB1
:1009D200F22CFF30FA05FF30FB057F30FC05FF30BB
:1009E200FD050310F90C7908F400F501F601F70191
:1009F2001830F435F50DF60DF70D890BFA2C740845
:100A0200FA047508FB047608FC047708FD047808EC
:100A120003190C2D0D2D122DF31F102D112D122D3A
:100A2200FD177D08F3007C08F2007B08F1007A08CC
:100A3200F00008008231D82285312000B601B701CA
:100A42000F30F0000030F1008231C22285310630D1
:100A52002000CE001330CD00AD30890B2E2DCD0BF2
:100A62002E2DCE0B2E2D00321430F0000030F1006E
:100A72008231C222853106302000CE001330CD00F3
:100A8200AD30890B422DCD0B422DCE0B422D0032C3
:100A92001E30F0000030F1008231C2228531063072
:100AA2002000CE001330CD00AD30890B562DCD0B7A
:100AB200562DCE0B562D003282315922853104300B
:100AC2008231B022853171082000C5007008C4004F
:100AD20005308231B022853171082000C3007008D0
:100AE200C20000308231B022853171082000C70077
:100AF2007008C6004408F0004508F100890D893BE2
:100B02008909F200F30001308431712485317308C0
:100B12002000A7007208A6007108A5007008A400B2
:100B22004208F0004308F100890D893B8909F2006F
:100B3200F300013084317124853173082000A30051
:100B42007208A2007108A1007008A0004608F00017
:100B52004708F100890D893B8909F200F300013051
:100B620084317124853173082000AB007208AA0019
:100B72007108A9007008A8000030F3000030F200EC
:100B82000030F1000030F0002708F7002608F600D8
:100B92002508F5002408F4008331E7238531031882
:100BA200D32DD42DEC2D200032080F3EB2000030A0
:100BB200333DB3003308B5003208B40006302000DC
:100BC200CE001330CD00AD30890BE52DCD0BE52DD8
:100BD200CE0BE52D00320030F3000030F200003081
:100BE200F1000030F00020002308F7002208F60090
:100BF2002108F5002008F4008331E723853103182A
:100C0200032E042E1C2E20003008FB3EB000FF30C5
:100C1200313DB1003108B5003008B4000630200083
:100C2200CE001330CD00AD30890B152ECD0B152E15
:100C3200CE0B152E00322000B31F202E212E292E7E
:100C42000A30B2000030B3000A30B4000030B50000
:100C52003108803ACD0081304D02031D322E003022
:100C62003002031C352E362E3F2EFF302000B000FE
:100C72000030B100FF30B4000030B500200035086C
:100C8200F1003408F0008231C222853120002B08A5
:100C9200F3002A08F2002908F1002808F000423087
:100CA200F700C830F6000030F5000030F400833160
:100CB200E7238531031C5E2E5F2E7B2E4430F3002A
:100CC2000030F2000030F1000030F00020002B086C
:100CD200F7002A08F6002908F5002808F4008331F5
:100CE200E7238531031C762E772E7B2E2000961467
:100CF2001611961120002B08F3002A08F200290889
:100D0200F1002808F0004430F7000030F6004030CF
:100D1200F5000030F4008331E7238531031C922E65
:100D2200932EAF2E4430F3004830F2000030F10031
:100D32000030F00020002B08F7002A08F6002908EE
:100D4200F5002808F4008331E7238531031CAA2E1D
:100D5200AB2EAF2E200096101615961120002B08F0
:100D6200F3002A08F2002908F1002808F0004430B4
:100D7200F7004830F6000030F5000030F40083310F
:100D8200E7238531031CC62EC72EE32E4430F30021
:100D92008030F2000030F1000030F00020002B081B
:100DA200F7002A08F6002908F5002808F400833124
:100DB200E7238531031CDE2EDF2EE32E2000961062
:100DC2001611961520003508B9003408B800E8302D
:100DD200F6000330F7003908F9003808F8008331CB
:100DE2008723853177082000BB007608BA0064307B
:100DF200F6000030F7003B08F1003A08F000183026
:100E0200F200FC30F30083310623853120003808DC
:100E12007007F8003908713DF90083318723853165
:100E220077082000BD007608BC000A30F6000030CA
:100E3200F7003B08F1003A08F0001830F200FC30ED
:100E4200F30083310623853170082000CD0071083C
:100E5200CE003D08F1003C08F0009C30F200FF306B
:100E6200F300833106238531700820004D07CF003F
:100E720071084E3DD00038084F07F8003908503D40
:100E8200F90083318723853177082000BF00760877
:100E9200BE003B08F1003A08F0001830F200FC30C6
:100EA200F30083310623853170082000CD007108DC
:100EB200CE003D08F1003C08F0009C30F200FF300B
:100EC200F300833106238531700820004D07CF00DF
:100ED20071084E3DD0003F08F1003E08F000F630A8
:100EE200F200FF30F30083310623853170082000C1
:100EF2004F07D1007108503DD20038085107C00099
:100F02003908523DC100D301D4015408803ACD00C2
:100F120080304D02031D8F2F0F305302031C922F7E
:100F2200932F942F602D20001714971017119711EB
:100F32004008553E860087010108990006302000CE
:100F4200CD003030890BA32FCD0BA32F0000200042
:100F520017109714171197113E08553E8600870106
:100F62000108990007302000CD007D30890BB72F92
:100F7200CD0BB72F200017109710171597113C08AB
:100F8200553E860087010108990007302000CD00F8
:100F92007D30890BCA2FCD0BCA2F20001710971056
:100FA200171197113A08553E8600870101089900EA
:100FB20007302000CD007D30890BDD2FCD0BDD2FDA
:100FC20001302000D3070030D43D862F8031022823
:100FD2008B308400823085005530860000308700D7
:100FE2000A3082317422873120308400003085003B
:0E0FF200293082316E228731200085311B2D7F
:020000040001F9
:08000000FF3FFF3FFF3FFF3F00
:0A000E00EC3FFF3F9F3FFF3FFF3F25
:00000001FF
